:100000000C9463000C948B000C948B000C94C30430
:100010000C94C3040C94C3040C948B000C948B00BC
:100020000C948B000C948B000C948B000C948B0024
:100030000C948B000C948B000C948B000C948B0014
:100040000C9479040C948B000C9447040C942104B8
:100050000C948B000C948B000C948B000C948B00F4
:100060000C948B000C948B000000000024002700EF
:100070002A0000000008000201000003040700003D
:1000800000000000000000000000250028002B00F8
:1000900000000000230026002900040404040404D6
:1000A0000404020202020202030303030303010227
:1000B00004081020408001020408102001020408F6
:1000C00010203D05410911241FBECFEFD8E0DEBF4F
:1000D000CDBF23E0AAEDB1E001C01D92A533B20768
:1000E000E1F711E0A0E0B1E0EAE5F3E102C005903C
:1000F0000D92AA3DB107D9F710E0C2E6D0E004C0E6
:100100002197FE010E949509C136D107C9F70E94C7
:1001100008060C94A0090C940000E1E3F2E0A08929
:10012000B18982E08C93A485B5851C92A685B7859C
:1001300080E18C93108EA489B58986E08C93A28986
:10014000B3898C9180618C93A289B3898C918860EA
:100150008C93A289B3898C9180688C930288F389EF
:10016000E02D80818F7D80830895CF92DF92EF9282
:10017000FF920F931F93CF93DF936C017A018B0152
:10018000C0E0D0E0CE15DF0589F0D8016D918D017A
:10019000D601ED91FC910190F081E02DC601099509
:1001A000892B11F47E0102C02196ECCFC701DF91AB
:1001B000CF911F910F91FF90EF90DF90CF90089516
:1001C000FC01538D448D252F30E0842F90E0821B5D
:1001D000930B541710F0CF96089501970895FC01E2
:1001E000918D828D981761F0828DDF01A80FB11D6E
:1001F0005D968C91928D9F5F9F73928F90E0089592
:100200008FEF9FEF0895FC01918D828D981731F04B
:10021000828DE80FF11D858D90E008958FEF9FEF9F
:100220000895FC01918D228D892F90E0805C9F4F75
:10023000821B91098F739927089581E392E00E94B0
:10024000110121E0892B09F420E0822F0895FC019F
:10025000848DDF01A80FB11DA35ABF4F2C91848D4F
:1002600090E001968F739927848FA689B7892C9384
:10027000A089B1898C9180648C93938D848D98131F
:1002800006C00288F389E02D80818F7D80830895E8
:10029000EF92FF920F931F93CF93DF93EC0181E0D6
:1002A000888F9B8D8C8D981305C0E889F989808192
:1002B00085FD24C0F62E0B8D10E00F5F1F4F0F73CE
:1002C0001127E02E8C8DE8120CC00FB607FCFACF78
:1002D000E889F989808185FFF5CFCE010E94270149
:1002E000F1CF8B8DFE01E80FF11DE35AFF4FF08235
:1002F0000B8FEA89FB898081806207C0EE89FF89C4
:100300006083E889F98980818064808381E090E05E
:10031000DF91CF911F910F91FF90EF900895CF93B0
:10032000DF93EC01888D8823C9F0EA89FB898081FD
:1003300085FD05C0A889B9898C9186FD0FC00FB6CF
:1003400007FCF5CF808185FFF2CFA889B9898C9110
:1003500085FFEDCFCE010E942701E7CFDF91CF913E
:10036000089580E090E0892B29F00E941D01811101
:100370000C9400000895833081F028F4813099F0C6
:100380008230A1F008958730A9F08830B9F0843028
:10039000D1F4809180008F7D03C0809180008F77A1
:1003A00080938000089584B58F7702C084B58F7DD7
:1003B00084BD08958091B0008F7703C08091B00014
:1003C0008F7D8093B0000895CF93DF93282F30E086
:1003D000F901EE58FF4F8491F901E255FF4FD49196
:1003E000F901E656FF4FC491CC2391F081110E9490
:1003F000BB01EC2FF0E0EE0FFF1FE057FF4FA59180
:10040000B491EC91ED2381E090E021F480E002C012
:1004100080E090E0DF91CF9108951F93CF93DF9319
:10042000282F30E0F901EE58FF4F8491F901E25591
:10043000FF4FD491F901E656FF4FC491CC23C9F088
:10044000162F81110E94BB01EC2FF0E0EE0FFF1F71
:10045000EA57FF4FA591B4918FB7F894111105C0D9
:100460009C91ED2FE095E92302C0EC91ED2BEC93EC
:100470008FBFDF91CF911F910895CF93DF9390E0CD
:10048000FC01E255FF4F2491FC01E656FF4F849199
:10049000882361F190E0880F991FFC01E859FF4F14
:1004A000C591D491FC01EA57FF4FA591B491611118
:1004B00009C09FB7F8948881209582238883EC91A6
:1004C0002E230BC0623061F49FB7F8943881822FDD
:1004D000809583238883EC912E2B2C939FBF06C09D
:1004E0008FB7F894E8812E2B28838FBFDF91CF91AF
:1004F00008953FB7F89480911F0290912002A09137
:100500002102B091220226B5A89B05C02F3F19F009
:100510000196A11DB11D3FBFBA2FA92F982F882783
:10052000820F911DA11DB11DBC01CD0142E0660FDE
:10053000771F881F991F4A95D1F708952FB7F89410
:1005400060911B0270911C0280911D0290911E020D
:100550002FBF08958F929F92AF92BF92CF92DF925A
:10056000EF92FF926B017C010E949E024B015C01A5
:10057000C60ED71EE81EF91E0E949E026815790558
:100580008A059B0528F0C616D706E806F906A0F7E7
:10059000FF90EF90DF90CF90BF90AF909F908F90A3
:1005A000089520912F02309130022817390771F4F5
:1005B00090912D0280912E02981741F0E0912D022A
:1005C000F0E0E652FE4F808190E008958FEF9FEFBC
:1005D000089508951F93CF93DF93DC015C962D91CE
:1005E0003C915D972115310539F481E090E0139637
:1005F0009C938E9312973DC05196ED91FC9152972A
:1006000050969C915097892F80951FB75E964C917C
:100610005E9741FB772770F941FD6095F894408122
:10062000772311F0492B01C048234083E90121972A
:10063000F1F748E0508160FF02C0592B01C05823F8
:100640005083E9012197F1F76695415099F7772397
:1006500021F090818923808303C08081982B90832F
:100660001FBF5C968D919C915D970197F1F721E0FA
:1006700030E0C901DF91CF911F91089520912F02A1
:10068000309130022817390771F480912E022091A1
:100690002D0290E0805C9F4F821B910960E470E026
:1006A0000E946D09089580E090E0089520912F0246
:1006B0003091300228173907B9F490912D028091BA
:1006C0002E02981789F0E0912D02F0E0E652FE4FDD
:1006D000808120912D0230E02F5F3F4F2F73332711
:1006E00020932D0290E008958FEF9FEF0895E09101
:1006F0002F02F0913002E817F90769F4A389B48951
:100700009C918589809589238C9310923002109258
:100710002F0281E0089580E0089580913003909148
:100720003103892B31F180912F029091300223E027
:1007300086319207F1F0009711F00E9477038091C3
:1007400034038E7F8093340310922E0210922D0278
:1007500086E193E09093300280932F02E091290389
:10076000F0912A03908180912B03892B808381E073
:10077000089580E00895089580E090E0089561155F
:10078000710579F0FB0101900020E9F73197AF0185
:10079000461B570BDC01ED91FC910280F381E02DAB
:1007A000099480E090E008954F925F926F927F925B
:1007B000EF92FF920F931F93CF93DF93CDB7DEB7E6
:1007C000A1970FB6F894DEBF0FBECDBF7C01FA0132
:1007D000CB0119A2223008F42AE08E010F5D1F4FD1
:1007E000422E512C612C712CBF01A30192010E9459
:1007F0004B09F901CA01015011096A3014F4605D16
:1008000001C0695CD8016C93232B242B252B61F745
:10081000B801C7010E94BF03A1960FB6F894DEBFCE
:100820000FBECDBFDF91CF911F910F91FF90EF9041
:100830007F906F905F904F9008950C94BF030E943B
:100840009B091F920F920FB60F9211242F933F9383
:100850004F935F936F937F938F939F93AF93BF93C8
:10086000EF93FF9381E392E00E942701FF91EF91C4
:10087000BF91AF919F918F917F916F915F914F91B8
:100880003F912F910F900FBE0F901F9018951F92C0
:100890000F920FB60F9211242F938F939F93EF9384
:1008A000FF93E0914102F09142028081E091470282
:1008B000F091480282FD12C0908180914A028F5FC0
:1008C0008F7320914B02821751F0E0914A02F0E0C1
:1008D000EF5CFD4F958F80934A0201C08081FF91AC
:1008E000EF919F918F912F910F900FBE0F901F90BE
:1008F00018951F920F920FB60F9211242F933F93CA
:100900008F939F93AF93BF9380911B0290911C0292
:10091000A0911D02B0911E0230911A0223E0230F14
:100920002D3720F40196A11DB11D05C026E8230F27
:100930000296A11DB11D20931A0280931B02909371
:100940001C02A0931D02B0931E0280911F02909181
:100950002002A0912102B09122020196A11DB11D99
:1009600080931F0290932002A0932102B093220251
:10097000BF91AF919F918F913F912F910F900FBE9B
:100980000F901F9018951F920F920FB60F9211247F
:100990002F933F934F935F936F937F938F939F9387
:1009A000AF93BF93EF93FF93E0912F02F09130024A
:1009B000309709F451C0968DA685B785858591FF3E
:1009C00004C09C91892329F447C09C91892309F094
:1009D00043C0A389B4899C918589809589238C9390
:1009E000868997890197F1F7608D718DA685B78506
:1009F000558538E020E0CB010197F1F7822F90E098
:100A000095958795282F4C91452309F02068315002
:100A100091F7868D81FD209580912E0290E00196C0
:100A20008F73992730912D02381749F0A0912E022B
:100A3000B0E0A652BE4F2C9380932E0203C0868D49
:100A40008160868F828D938D0197F1F7A389B48998
:100A50009C918589892B8C93FF91EF91BF91AF91E8
:100A60009F918F917F916F915F914F913F912F91C6
:100A70000F900FBE0F901F90189510923402109295
:100A8000330288EE93E0A0E0B0E0809335029093CB
:100A90003602A0933702B093380224E031E030935D
:100AA00032022093310225EC30E030933E02209355
:100AB0003D0224EC30E03093400220933F0220ECD2
:100AC00030E0309342022093410221EC30E0309339
:100AD00044022093430222EC30E0309346022093FC
:100AE000450226EC30E030934802209347021092F2
:100AF0004A0210924B0210924C0210924D02109238
:100B0000D4021092D5021092D6021092D7021092FF
:100B1000D8021092D9021092DA021092DB021092DF
:100B2000DC021092DD021092DE021092DF021092BF
:100B3000E0021092E1021092E2021092E30210929F
:100B400019031092180380931A0390931B03A09328
:100B50001C03B0931D0386E191E0909317038093EB
:100B6000160310922D0310922C0310922F03109253
:100B70002E0310923103109230031092330310921F
:100B80003203609134036E7F6D7F6093340366950A
:100B9000617081E068278EE00E940D0261E08EE0C6
:100BA0000E943D02ECEBF0E0E491E0932603E8EADA
:100BB000F0E0E491F0E0EE0FFF1FEA57FF4F859160
:100BC0009491909328038093270360E08FE00E9424
:100BD0003D028091340381FD04C061E08FE00E94FA
:100BE0000D028FE080932203EDEBF0E0E491E093BF
:100BF0002303E9EAF0E0E491F0E0EE0FFF1FE05795
:100C0000FF4F859194919093250380932403089539
:100C1000789484B5826084BD84B5816084BD85B5D7
:100C2000826085BD85B5816085BD80916E008160E3
:100C300080936E0010928100809181008260809389
:100C4000810080918100816080938100809180008B
:100C50008160809380008091B10084608093B100B6
:100C60008091B00081608093B00080917A008460B0
:100C700080937A0080917A00826080937A008091DC
:100C80007A00816080937A0080917A0080688093F6
:100C90007A001092C1001092120310921303109266
:100CA0001403109215031092D0021092D1021092E8
:100CB000D2021092D30268EB7BE080E090E00E94C9
:100CC000AA0281E392E090931103809310030E94A3
:100CD0008D000E949E026093D0027093D102809397
:100CE000D2029093D30264E271E08091100390915C
:100CF00011030E941D046AE070E080E090E00E9411
:100D0000AA0281E08093E40262E082E00E943D0258
:100D100062E083E00E943D0262E084E00E943D02C6
:100D200062E085E00E943D0262E086E00E943D02B2
:100D300062E087E00E943D0262E088E00E943D029E
:100D400062E089E00E943D0262E08AE00E943D028A
:100D500062E08BE00E943D0262E08CE00E943D0276
:100D600061E08EE00E943D0260E08FE00E943D0263
:100D7000109231031092300310922F0310922E0321
:100D800010922D0310922C038DE991E09093330380
:100D90008093320390912203963108F057C02DEBD7
:100DA00030E030932D0320932C032BE931E0309376
:100DB0002F0320932E032CE231E030933103209354
:100DC000300320916800983050F031E09E3008F4F4
:100DD00030E081E001C0880F3A95EAF701C084E075
:100DE000822B80936800983038F09E3040F0963126
:100DF00048F020E030E008C02DE630E005C02BE6EA
:100E000030E002C02CE630E030932A03209329031F
:100E1000983030F481E001C0880F9A95EAF70EC04F
:100E2000292F30E09E3018F42850310902C02E508E
:100E3000310981E001C0880F2A95EAF780932B03DE
:100E400080913203909133030197F1F70E948D0353
:100E50000E948D030E948D0094EF892E9924939413
:100E6000A12CB12C0E949E02672B682B692B41F4A8
:100E70000E949E02623071058105910508F40BC144
:100E80000E949E026093290270932A0280932B0293
:100E900090932C02C0902502D0902602E090270269
:100EA000F09028026C157D058E059F0540F4609337
:100EB0002502709326028093270290932802C09007
:100EC0002502D0902602E0902702F09028029B0194
:100ED000AC012C193D094E095F0969017A013AEF0D
:100EE000C316D104E104F10408F4D5C060932502CF
:100EF0007093260280932702909328028092DC024E
:100F00009092DD02A092DE02B092DF021092E00227
:100F10001092E1021092E2021092E3028091D40258
:100F20009091D502A091D602B091D7028093D802B9
:100F30009093D902A093DA02B093DB020E949E0242
:100F40006093D4027093D5028093D6029093D70217
:100F50000E949E026093D0027093D1028093D202CD
:100F60009093D3020E949E026B017C0166E371E0C4
:100F700080911003909111030E941D042AE041E02A
:100F800050E060E070E080911003909111030E94A6
:100F9000D4036DE371E080911003909111030E94DE
:100FA0001D042AE0B701A60180911003909111035E
:100FB0000E94D4036FE371E08091100390911103BC
:100FC0000E941D048091D4029091D502A091D60276
:100FD000B091D702B701A601481B590B6A0B7B0BD6
:100FE0002AE080911003909111030E94D4036FE3D3
:100FF00071E080911003909111030E941D044091B3
:10100000D4025091D5026091D6027091D70280919E
:10101000D8029091D902A091DA02B091DB02481B6C
:10102000590B6A0B7B0B2AE08091100390911103FE
:101030000E94D40361E471E0809110039091110348
:101040000E941D040E949E02AB01BC012AE0809117
:101050001003909111030E94D403E0901003F090CC
:10106000110363E471E0C7010E94BF0363E371E011
:10107000C7010E94BF0362E070E080E090E00E9440
:10108000AA020E949E026093D4027093D5028093BC
:10109000D6029093D70282E00E94E401892B61F48A
:1010A0006AE471E081E392E00E941D046AE471E069
:1010B00086E193E00E941D0483E00E94E401892BF5
:1010C00061F467E571E081E392E00E941D0467E549
:1010D00071E086E193E00E941D0484E00E94E40137
:1010E000892B61F463E671E081E392E00E941D04C4
:1010F00063E671E086E193E00E941D0485E00E94B2
:10110000E401892B61F460E771E081E392E00E94E1
:101110001D0460E771E086E193E00E941D0486E013
:101120000E94E401892B99F4809124028F5F8093BF
:1011300024028F3170F06DE771E081E392E00E944C
:101140001D046DE771E086E193E00E941D0410929A
:10115000240287E00E94E401892B99F48091230204
:101160008F5F809323028F3170F068E871E081E334
:1011700092E00E941D0468E871E086E193E00E941D
:101180001D041092230288E00E94E401892B61F47F
:1011900064E971E081E392E00E941D0464E971E07A
:1011A00086E193E00E941D0489E00E94E401892BFE
:1011B00061F461EA71E081E392E00E941D0461EA5A
:1011C00071E086E193E00E941D048AE00E94E40140
:1011D000892B61F46FEA71E081E392E00E941D04C3
:1011E0006FEA71E086E193E00E941D048BE00E94AB
:1011F000E401892B61F46DEB71E081E392E00E94E0
:101200001D046DEB71E086E193E00E941D048CE00B
:101210000E94E401892B61F46CEC71E081E392E0BF
:101220000E941D046CEC71E086E193E00E941D04B5
:101230000E9479022B013C0184E6C82ED12CE12CBE
:10124000F12C0E947902DC01CB0184199509A609D1
:10125000B709883E9340A105B10558F041E0C41A92
:10126000D108E108F10858EE450E53E0551E611C07
:10127000711CC114D104E104F10419F70E94B101F9
:10128000F1CD86E191E0909317038093160386E1F8
:1012900093E00C947703A1E21A2EAA1BBB1BFD015D
:1012A0000DC0AA1FBB1FEE1FFF1FA217B307E40745
:1012B000F50720F0A21BB30BE40BF50B661F771F9D
:1012C000881F991F1A9469F760957095809590957D
:1012D0009B01AC01BD01CF01089597FB072E16F4C9
:1012E000009407D077FD09D00E94810907FC05D042
:1012F0003EF4909581959F4F0895709561957F4F2D
:101300000895AA1BBB1B51E107C0AA1FBB1FA6174C
:10131000B70710F0A61BB70B881F991F5A95A9F79E
:1013200080959095BC01CD010895EE0FFF1F0590AB
:10133000F491E02D099481E090E0F8940C94A009D8
:1013400010E0C2E6D0E004C0FE010E94950921969B
:0A135000C336D107C9F7F894FFCFA8
:10135A00000000004801B500E0008F011101EF0014
:10136A00030100000000EA02B500BC03E9023E03E3
:10137A005603D102564D4450565F317C315F564D6B
:10138A004450560D0A00564D4450455F003A323AD1
:10139A00007C005F564D445045000D2A6173703D34
:1013AA0031363A39230D000D2A6173703D343A33D0
:1013BA00230D000D2A6173703D5245414C230D00E7
:1013CA000D2A6173703D4C424F58230D000D2A704F
:1013DA006F773D6F6E230D000D2A706F773D6F6634
:1013EA0066230D000D2A626C616E6B3D6F6E230DD4
:1013FA00000D2A626C616E6B3D6F6666230D000DEF
:10140A002A736F75723D68646D69230D000D2A7326
:10141A006F75723D68646D6932230D000D2A736F12
:0A142A0075723D524742230D000089
:00000001FF
